:020000040800F2
:1000000000C00020755A0008552F0008572F00081F
:10001000592F00085B2F00085D2F0008000000002A
:100020000000000000000000000000005F2F00083A
:10003000612F000800000000632F0008652F0008F2
:10004000BD5A0008BD5A0008BD5A0008BD5A000834
:10005000BD5A0008BD5A0008BD5A0008BD5A000824
:10006000BD5A0008BD5A0008BD5A0008BD5A000814
:10007000BD5A0008BD5A0008BD5A00086D2F00087F
:100080007D2F0008BD5A0008BD5A0008BD5A00085F
:10009000BD5A0008BD5A0008BD5A0008BD5A0008E4
:1000A000BD5A00088D2F0008BD5A0008BD5A00082F
:1000B000BD5A0008BD5A0008BD5A0008BD5A0008C4
:1000C000BD5A0008BD5A0008BD5A0008BD5A0008B4
:1000D000BD5A00089D2F0008B52F0008BD5A000822
:1000E000BD5A0008BD5A0008BD5A0008BD5A000894
:1000F000BD5A0008BD5A0008BD5A0008BD5A000884
:10010000BD5A0008BD5A0008BD5A0008BD5A000873
:10011000BD5A0008BD5A0008BD5A0008BD5A000863
:10012000BD5A0008BD5A0008BD5A0008BD5A000853
:1001300000000000000000000000000000000000BF
:1001400000000000000000000000000000000000AF
:10015000000000000000000000000000000000009F
:10016000000000000000000000000000000000008F
:10017000000000000000000000000000000000007F
:10018000000000000000000000000000000000006F
:10019000000000000000000000000000000000005F
:1001A000000000000000000000000000000000004F
:1001B000000000000000000000000000000000003F
:1001C000000000000000000000000000000000002F
:1001D000000000000000000000000000000000001F
:0401E0005FF8E0F1F3
:1001E80010B5054C237833B9044B13B10448AFF369
:1001F80000800123237010BDD004002000000000FF
:100208008C5C000808B5034B1BB103490348AFF3E6
:10021800008008BD00000000D40400208C5C0008A9
:10022800844641EA000313F0030349D1403A23D33B
:100238000B6803604B6843608B688360CB68C3605E
:100248000B6903614B6943618B698361CB69C36146
:100258000B6A03624B6A43628B6A8362CB6AC3622E
:100268000B6B03634B6B43638B6B8363CB6BC36316
:1002780040304031403ADBD230320BD30B68036058
:100288004B6843608B688360CB68C3601030103163
:10029800103AF3D20C3205D351F8043B40F8043B32
:1002A800043AF9D2043208D0D2071CBF11F8013B36
:1002B80000F8013B01D30B8803806046704700BFFC
:1002C800082A13D38B07B1D010F00303AED0C3F1C3
:1002D8000403D21ADB071CBF11F8013B00F8013BED
:1002E800A4D331F8023B20F8023B9FE7043AD9D364
:1002F800013A11F8013B00F8013BF9D20B78037081
:100308004B7843708B788370604670474FF0FF0CD2
:100318001CEAD0521EBF1CEAD15392EA0C0F93EA92
:100328000C0F6FD01A4480EA010C400218BF5FEA34
:1003380041211ED04FF0006343EA501043EA5111A7
:10034800A0FB01310CF00040B1F5000F3EBF4900A1
:1003580041EAD3715B0040EA010062F17F02FD2AA5
:100368001DD8B3F1004F40EBC25008BF20F0010088
:10037800704790F0000F0CF0004C08BF49024CEA9F
:10038800502040EA51207F3AC2BFD2F1FF0340EA31
:10039800C250704740F400004FF00003013A5DDCA2
:1003A80012F1190FDCBF00F000407047C2F10002E3
:1003B800410021FA02F1C2F1200200FA02FC5FEAD0
:1003C800310040F1000053EA4C0308BF20EADC701A
:1003D800704792F0000F00F0004C02BF400010F48C
:1003E800000F013AF9D040EA0C0093F0000F01F039
:1003F800004C02BF490011F4000F013BF9D041EA5B
:100408000C018FE70CEAD15392EA0C0F18BF93EA5C
:100418000C0F0AD030F0004C18BF31F0004CD8D186
:1004280080EA010000F00040704790F0000F17BF0D
:1004380090F0004F084691F0000F91F0004F14D053
:1004480092EA0C0F01D142020FD193EA0C0F03D1AB
:100458004B0218BF084608D180EA010000F00040AE
:1004680040F0FE4040F40000704740F0FE4040F489
:100478004000704781F0004102E000BF83F0004374
:1004880030B54FEA41044FEA430594EA050F08BF27
:1004980090EA020F1FBF54EA000C55EA020C7FEAEB
:1004A800645C7FEA655C00F0E2804FEA5454D4EB68
:1004B8005555B8BF6D420CDD2C4480EA020281EA32
:1004C800030382EA000083EA010180EA020281EA6A
:1004D8000303362D88BF30BD11F0004F4FEA0131BC
:1004E8004FF4801C4CEA113102D0404261EB4101CB
:1004F80013F0004F4FEA03334CEA133302D0524251
:1005080063EB430394EA050F00F0A780A4F101040C
:10051800D5F1200E0DDB02FA0EFC22FA05F2801846
:1005280041F1000103FA0EF2801843FA05F359412C
:100538000EE0A5F120050EF1200E012A03FA0EFCAB
:1005480028BF4CF0020C43FA05F3C01851EBE371D5
:1005580001F0004507D54FF0000EDCF1000C7EEBF2
:1005680000006EEB0101B1F5801F1BD3B1F5001F30
:100578000CD349085FEA30004FEA3C0C04F101044F
:100588004FEA445212F5800F80F09A80BCF1004F78
:1005980008BF5FEA500C50F1000041EB045141EAFA
:1005A800050130BD5FEA4C0C404141EB0101013CC3
:1005B80028BFB1F5801FE9D291F0000F04BF0146B2
:1005C8000020B1FA81F308BF2033A3F10B03B3F184
:1005D80020020CDA0C3208DD02F1140CC2F10C0214
:1005E80001FA0CF021FA02F10CE002F11402D8BF72
:1005F800C2F1200C01FA02F120FA0CFCDCBF41EA3E
:100608000C019040E41AA2BF01EB0451294330BD0C
:100618006FEA04041F3C1CDA0C340EDC04F11404E9
:10062800C4F1200220FA04F001FA02F340EA0300C0
:1006380021FA04F345EA030130BDC4F10C04C4F106
:10064800200220FA02F001FA04F340EA03002946E6
:1006580030BD21FA04F0294630BD94F0000F83F430
:10066800801306BF81F480110134013D4EE77FEA13
:10067800645C18BF7FEA655C29D094EA050F08BF5F
:1006880090EA020F05D054EA000C04BF1946104640
:1006980030BD91EA030F1EBF0021002030BD5FEA84
:1006A800545C05D14000494128BF41F0004130BDAC
:1006B80014F580043CBF01F5801130BD01F0004500
:1006C80045F0FE4141F470014FF0000030BD7FEA73
:1006D800645C1ABF194610467FEA655C1CBF0B466E
:1006E800024650EA013406BF52EA033591EA030F85
:1006F80041F4002130BD00BF90F0000F04BF00217D
:10070800704730B54FF4806404F132044FF00005AF
:100718004FF0000150E700BF90F0000F04BF002128
:10072800704730B54FF4806404F1320410F000458E
:1007380048BF40424FF000013EE700BF42004FEA89
:10074800E2014FEA31014FEA02701FBF12F07F4306
:1007580093F07F4F81F06051704732F07F4208BFBD
:10076800704793F07F4F04BF41F40021704730B5C4
:100778004FF4607401F0004521F000411CE700BF10
:1007880050EA010208BF704730B54FF000050AE093
:1007980050EA010208BF704730B511F0004502D594
:1007A800404261EB41014FF4806404F132045FEA96
:1007B800915C3FF4D8AE4FF003025FEADC0C18BF3F
:1007C80003325FEADC0C18BF033202EBDC02C2F131
:1007D800200300FA03FC20FA02F001FA03FE40EAC3
:1007E8000E0021FA02F11444BDE600BF70B54FF0C7
:1007F800FF0C4CF4E06C1CEA11541DBF1CEA1355A5
:1008080094EA0C0F95EA0C0F00F0DEF82C4481EA0C
:10081800030621EA4C5123EA4C5350EA013518BF2C
:1008280052EA033541F4801143F4801338D0A0FB19
:1008380002CE4FF00005E1FB02E506F00042E0FBC6
:1008480003E54FF00006E1FB03569CF0000F18BFCC
:100858004EF0010EA4F1FF04B6F5007F64F5407474
:1008680004D25FEA4E0E6D4146EB060642EAC62107
:1008780041EA55514FEAC52040EA5E504FEACE2E74
:10088800B4F1FD0C88BFBCF5E06F1ED8BEF1004F77
:1008980008BF5FEA500E50F1000041EB045170BDF3
:1008A80006F0004646EA010140EA020081EA030137
:1008B800B4EB5C04C2BFD4EB0C0541EA045170BD33
:1008C80041F480114FF0000E013C00F3AB8014F1AD
:1008D800360FDEBF002001F0004170BDC4F10004F6
:1008E800203C35DA0C341BDC04F11404C4F1200577
:1008F80000FA05F320FA04F001FA05F240EA0200D2
:1009080001F0004221F0004110EBD37021FA04F607
:1009180042EB06015EEA430E08BF20EAD37070BDC1
:10092800C4F10C04C4F1200500FA04F320FA05F020
:1009380001FA04F240EA020001F0004110EBD37022
:1009480041F100015EEA430E08BF20EAD37070BD92
:10095800C4F1200500FA05F24EEA020E20FA04F36B
:1009680001FA05F243EA020321FA04F001F000411A
:1009780021FA04F220EA020000EBD3705EEA430E8B
:1009880008BF20EAD37070BD94F0000F0FD101F0BA
:100998000046400041EB010111F4801F08BF013CF3
:1009A800F7D041EA060195F0000F18BF704703F031
:1009B8000046520043EB030313F4801F08BF013DB8
:1009C800F7D043EA0603704794EA0C0F0CEA135574
:1009D80018BF95EA0C0F0CD050EA410618BF52EA2E
:1009E8004306D1D181EA030101F000414FF0000034
:1009F80070BD50EA410606BF1046194652EA430642
:100A080019D094EA0C0F02D150EA013613D195EAB5
:100A18000C0F05D152EA03361CBF104619460AD1FD
:100A280081EA030101F0004141F0FE4141F4700107
:100A38004FF0000070BD41F0FE4141F4780170BDF7
:100A480070B54FF0FF0C4CF4E06C1CEA11541DBF5C
:100A58001CEA135594EA0C0F95EA0C0F00F0A7F85E
:100A6800A4EB050481EA030E52EA03354FEA01318B
:100A780000F088804FEA03334FF0805545EA13139E
:100A880043EA12634FEA022245EA111545EA106566
:100A98004FEA00260EF000419D4208BF964244F1FD
:100AA800FD0404F5407402D25B084FEA3202B61A1C
:100AB80065EB03055B084FEA32024FF480104FF4F0
:100AC800002CB6EB020E75EB030E22BFB61A754664
:100AD80040EA0C005B084FEA3202B6EB020E75EBF7
:100AE800030E22BFB61A754640EA5C005B084FEA5F
:100AF8003202B6EB020E75EB030E22BFB61A75462C
:100B080040EA9C005B084FEA3202B6EB020E75EB36
:100B1800030E22BFB61A754640EADC0055EA060EF7
:100B280018D04FEA051545EA16754FEA06164FEA3A
:100B3800C30343EA52734FEAC2025FEA1C1CC0D1E6
:100B480011F4801F0BD141EA00014FF000004FF073
:100B5800004CB6E711F4801F04BF01430020B4F134
:100B6800FD0C88BFBCF5E06F3FF6AFAEB5EB030CEC
:100B780004BFB6EB020C5FEA500C50F1000041EBE9
:100B8800045170BD0EF0004E4EEA113114EB5C04B6
:100B9800C2BFD4EB0C0541EA045170BD41F4801189
:100BA8004FF0000E013C90E645EA060E8DE60CEA91
:100BB800135594EA0C0F08BF95EA0C0F3FF43BAFAE
:100BC80094EA0C0F0AD150EA01347FF434AF95EA65
:100BD8000C0F7FF425AF104619462CE795EA0C0F49
:100BE80006D152EA03353FF4FDAE1046194622E716
:100BF80050EA410618BF52EA43067FF4C5AE50EAF0
:100C080041047FF40DAF52EA43057FF4EBAE12E7DF
:100C18004FF0FF3C06E000BF4FF0010C02E000BFC0
:100C28004FF0010C4DF804CD4FEA410C7FEA6C5CA3
:100C38004FEA430C18BF7FEA6C5C1BD001B050EA46
:100C4800410C0CBF52EA430C91EA030F02BF90EA31
:100C5800020F0020704710F1000F91EA030F58BFF0
:100C6800994208BF90422CBFD8176FEAE37040F052
:100C7800010070474FEA410C7FEA6C5C02D150EAF0
:100C8800013C07D14FEA430C7FEA6C5CD6D152EAAB
:100C9800033CD3D05DF8040B704700BF8446104670
:100CA80062468C461946634600E000BF01B5FFF76F
:100CB800B7FF002848BF10F1000F01BD4DF808ED3F
:100CC800FFF7F4FF0CBF012000205DF808FB00BF10
:100CD8004DF808EDFFF7EAFF34BF012000205DF86A
:100CE80008FB00BF4DF808EDFFF7E0FF94BF0120B7
:100CF80000205DF808FB00BF4DF808EDFFF7CEFFB8
:100D080094BF012000205DF808FB00BF4DF808EDF6
:100D1800FFF7C4FF34BF012000205DF808FB00BFC7
:100D28004FEA410212F5001215D211D56FF478730B
:100D3800B3EB625212D94FEAC12343F0004343EAAE
:100D4800505311F0004F23FA02F018BF4042704789
:100D58004FF00000704750EA013005D111F0004013
:100D680008BF6FF0004070474FF00000704700BFA9
:100D78004FEA4102B2F1E04324BFB3F5001CDCF1B5
:100D8800FE5C0DD901F0004C4FEAC0024CEA5070ED
:100D9800B2F1004F40EB830008BF20F0010070471C
:100DA80011F0804F21D113F13872BCBF01F000401F
:100DB800704741F480114FEA5252C2F11802C2F151
:100DC800200C10FA0CF320FA02F018BF40F00100D2
:100DD8004FEAC1234FEAD32303FA0CFC40EA0C0084
:100DE80023FA02F34FEA4303CCE77FEA625307D1C1
:100DF80050EA01331EBF4FF0FE4040F440007047F8
:100E080001F0004040F0FE4040F40000704700BF91
:100E180080F0004002E000BF81F0004142001FBFA7
:100E28005FEA410392EA030F7FEA226C7FEA236CB0
:100E38006AD04FEA1262D2EB1363C1BFD2184140A5
:100E480048404140B8BF5B42192B88BF704710F03B
:100E5800004F40F4000020F07F4018BF404211F0DE
:100E6800004F41F4000121F07F4118BF494292EA46
:100E7800030F3FD0A2F1010241FA03FC10EB0C0072
:100E8800C3F1200301FA03F100F0004302D54942FF
:100E980060EB4000B0F5000F13D3B0F1807F06D3AC
:100EA80040084FEA310102F10102FE2A51D2B1F1A4
:100EB800004F40EBC25008BF20F0010040EA030099
:100EC8007047490040EB0000013A28BFB0F5000F19
:100ED800EDD2B0FA80FCACF1080CB2EB0C0200FACF
:100EE8000CF0AABF00EBC25052421843BCBFD0401E
:100EF8001843704792F0000F81F4000106BF80F498
:100F080000000132013BB5E74FEA41037FEA226C5A
:100F180018BF7FEA236C21D092EA030F04D092F025
:100F2800000F08BF0846704790EA010F1CBF002059
:100F3800704712F07F4F04D1400028BF40F00040B6
:100F4800704712F100723CBF00F50000704700F0D6
:100F5800004343F0FE4040F4000070477FEA2262FD
:100F680016BF08467FEA23630146420206BF5FEACE
:100F7800412390EA010F40F4800070474FF00003CE
:100F880004E000BF10F0004348BF40425FEA000C95
:100F980008BF704743F0964301464FF000001CE03D
:100FA80050EA010208BF70474FF000030AE000BF93
:100FB80050EA010208BF704711F0004302D54042D1
:100FC80061EB41015FEA010C02BF84460146002043
:100FD80043F0B64308BFA3F18053A3F50003BCFA5E
:100FE8008CF2083AA3EBC25310DB01FA02FC63440B
:100FF80000FA02FCC2F12002BCF1004F20FA02F212
:1010080043EB020008BF20F00100704702F1200204
:1010180001FA02FCC2F1200250EA4C0021FA02F265
:1010280043EB020008BF20EADC7070474FF0FF3C3A
:1010380006E000BF4FF0010C02E000BF4FF0010CCA
:101048004DF804CD4FEA40024FEA41037FEA226C93
:1010580018BF7FEA236C11D001B052EA530C18BFB5
:1010680090EA010F58BFB2EB030088BFC81738BF1A
:101078006FEAE17018BF40F0010070477FEA226C08
:1010880002D15FEA402C05D17FEA236CE4D15FEA04
:10109800412CE1D05DF8040B704700BF8446084638
:1010A8006146FFE70FB5FFF7C9FF002848BF10F1F9
:1010B800000F0FBD4DF808EDFFF7F4FF0CBF01203E
:1010C80000205DF808FB00BF4DF808EDFFF7EAFFC8
:1010D80034BF012000205DF808FB00BF4DF808ED83
:1010E800FFF7E0FF94BF012000205DF808FB00BF78
:1010F8004DF808EDFFF7D2FF94BF012000205DF8FE
:1011080008FB00BF4DF808EDFFF7C8FF34BF01200A
:1011180000205DF808FB00BF70B505460E461B4C65
:1011280001221146204603F039F900220221204607
:1011380003F034F900220421204603F02FF901229C
:101148004FF48061204603F029F901224FF4006131
:10115800204603F023F900224FF48051204603F083
:101168001DF900224FF40051204603F017F901221F
:101178004FF48041204603F011F9054B1B68AA196A
:101188005A639A63AD1BDD631D6470BD000C01409A
:10119800E006002038B505461A4C012211462046C3
:1011A80003F0FCF800220221204603F0F7F80022A1
:1011B8000421204603F0F2F801224FF48061204612
:1011C80003F0ECF800224FF40061204603F0E6F843
:1011D80001224FF48051204603F0E0F801224FF439
:1011E8000051204603F0DAF800224FF480412046EF
:1011F80003F0D4F8044B1B685D639D63DD631D64D5
:1012080038BD00BF000C0140E006002038B5054697
:101218001A4C00220121204603F0C0F801220221C5
:10122800204603F0BBF801220421204603F0B6F85B
:1012380000224FF48061204603F0B0F801224FF4F9
:101248000061204603F0AAF800224FF4805120469E
:1012580003F0A4F800224FF40051204603F09EF852
:1012680001224FF48041204603F098F8044B1B6894
:101278005D639D63DD631D6438BD00BF000C0140E4
:10128800E006002010B51C4C01221146204603F050
:1012980085F800220221204603F080F8002204216C
:1012A800204603F07BF801224FF48061204603F0CA
:1012B80075F801224FF40061204603F06FF8002210
:1012C8004FF48051204603F069F800224FF4005192
:1012D800204603F063F801224FF48041204603F0D2
:1012E8005DF8064B1B684FF448725A639A634FF4D3
:1012F800FA62DA631A6410BD000C0140E0060020AF
:1013080010B51B4C01221146204603F047F8012274
:101318000221204603F042F801220421204603F06E
:101328003DF801224FF48061204603F037F801228E
:101338004FF40061204603F031F801224FF4805148
:10134800204603F02BF801224FF40051204603F009
:1013580025F801224FF48041204603F01FF8054B81
:101368001B6800225A639A63DA631A6410BD00BFCF
:10137800000C0140E00600202DE9F84304460F4622
:1013880015461E460022002328463146FFF796FCE4
:1013980040B10022002320463946FFF78FFC002881
:1013A80040F0E18027F0004826F000492A464B46E5
:1013B80020464146FFF762F822464346FFF77EFC87
:1013C800002840D12246434628464946FFF756F8AA
:1013D8002A464B46FFF772FC002840F0A380002203
:1013E800002320463946FFF791FC002854D02A46AE
:1013F8004B4620464146FFF76BFC98B35CA3D3E904
:10140800002320464146FFF7F1F92A464B46FFF7ED
:1014180017FBFFF785FC604B03EBC00253F8304025
:1014280057680022002328463146FFF751FC002860
:101438007AD022463B4650A1D1E90001FFF71EF8B9
:1014480004460F4670E00022002320463946FFF785
:101458003FFC18B94AA5D5E9004577E04AA5D5E982
:10146800004573E042A3D3E9002328464946FFF725
:10147800BDF922464346FFF7E3FAFFF751FC464B16
:1014880003EBC003D3E900233DA1D1E90001FEF736
:10149800F5FF04460F46C4E72A464B462046414618
:1014A800FFF716FC28B332A3D3E9002320464146B0
:1014B800FFF79CF92A464B46FFF7C2FAFFF730FCC4
:1014C800354B03EBC002576853F8304007F100472B
:1014D8000022002328463146FFF7FAFB20B32246B4
:1014E8003B462BA1D1E90001FEF7C8FF04460F4691
:1014F8001AE01FA3D3E9002328464946FFF776F9E7
:1015080022464346FFF79CFAFFF70AFC224B03EBFF
:10151800C0001BA3D3E9002303C8FEF7AFFF0446AE
:101528000F46D5E70024274600221C4B20463946A3
:10153800FFF75CF910A3D3E90023FFF781FA04460B
:101548000D4600220023FFF7C3FB18B920462946A1
:10155800BDE8F8830022124B20462946FEF790FF8B
:1015680004460D46F2E700240025EFE7AFF30080BC
:101578000000000000E06F4050455254FB21094034
:101588004AD8124DFB21F93F4AD8124DFB21F9BF29
:1015980050455254FB2109C0A85C000800806640F1
:1015A80000807640000000002DE9F04F8FB08046A3
:1015B800894617461D46BDF860A0BDF86840BDF8CD
:1015C8006C300AFB00F601FB156604FB016603FBA1
:1015D8001066099303FB056604FB0AFBA6EB0B00E8
:1015E800FFF79AF8CDE900015E4500F05381A5EBBD
:1015F800040B5846FFF790F8CDE902013846FFF78B
:101608007BF802460B46AAA1D1E90001FFF718FAB8
:1016180002460B46CDE90A23DDE90201FFF7E6F8A9
:1016280006460F46A4EB0800FFF776F8CDE9060159
:101638001998FFF761F802460B469DA1D1E9000110
:10164800FFF7FEF902460B46CDE90C23DDE906015A
:10165800FFF7CCF802460B4630463946FEF710FF36
:1016680006460F46A8EB0500FFF756F8CDE904013A
:101678001C98FFF741F802460B468DA1D1E90001FD
:10168800FFF7DEF902460B46DDE90401FFF7AEF885
:1016980002460B4630463946FEF7F2FEDDE90023E6
:1016A800FFF7CEF906460F46DDE90423DDE902011E
:1016B800FFF79CF8DDE90023FFF7C2F902460B4665
:1016C800DDE90601FFF792F802460B463046394637
:1016D800FEF7D6FECDE906014846FFF70DF8DDE92D
:1016E8000023FFF7ADF906460F464846FFF714F802
:1016F80032463B46FFF77AF806460F46601BFFF76F
:101708000BF832463B46FFF771F802460B46DDE917
:101718000601FEF7B5FECDE906015046FEF7ECFFDF
:1017280006460F465046FEF7F7FF32463B46FFF7A0
:101738005DF8DDE90023FFF783F906460F46A8EBBD
:101748000400FEF7E9FF32463B46FFF74FF8024632
:101758000B46DDE90601FEF793FECDE90601099C7B
:101768002046FEF7C9FF06460F462046FEF7D4FF7F
:1017780032463B46FFF73AF8DDE90023FFF760F908
:1017880006460F46A5EB0800FEF7C6FF32463B4665
:10179800FFF72CF802460B46DDE90601FEF770FE5E
:1017A8000022474BFFF722F806460F4608EB0504D0
:1017B800DDE90C23DDE90A01FEF760FE02460B466F
:1017C800DDE90201FFF712F8CDE90001A9EB0A05EE
:1017D80005FB0BF5CA4432463B4630463946FEF710
:1017E8004FFE804689465046FEF796FF42464B46D6
:1017F800FEF744FE804689462846FEF78DFF42469E
:101808004B46FEF7F3FF02460B46DDE90001FEF703
:1018180035FEDDE90423FFF713F9DDE90223FFF7BD
:101828000FF9804689462046FEF776FF42464B462A
:10183800FEF724FE0022224BFEF7D8FF04460D4691
:101848000022204BFFF744FA30BB1BA3D3E9002347
:1018580020462946FFF75AFA10BB0022194B30469A
:101868003946FFF735FAE8B913A3D3E90023304620
:101878003946FFF74BFAB8B920462946FFF750FA20
:101888001D9B186030463946FFF74AFA1E9B1860C0
:10189800012002E0002000E000200FB0BDE8F08F3A
:1018A8000020FAE70020F8E70020F6E7AFF3008011
:1018B8000000000065CDCD41000000000020704010
:1018C8000000E03F000010C02DE9F04F89B0164637
:1018D8001F46DDE9128902460B46FEF787FFCDE970
:1018E8000201DFF8B0A1DAF81040DAF80850601BFE
:1018F800FEF712FFDDE90223FEF778FFCDE90001CC
:1019080042464B4640464946FEF770FFCDE9040182
:10191800DAF80080A5EB0800FEF7FEFEDDE90423F7
:10192800FEF764FF02460B46DDE90001FEF7A8FD5D
:10193800CDE9000132463B4630463946FEF756FFB0
:1019480006460F46A8EB0400FEF7E6FECDE906675B
:1019580032463B46FEF74AFF02460B46DDE90001E8
:10196800FEF78EFD00224C4BFEF740FF4B4BD3E9B0
:101978000067CDE9006732463B46FFF761F8064647
:101988000F46281BDAF804B00BFB00F3A8EB0500A0
:10199800DAF8149009FB00F000FB09F003FB0B00D8
:1019A800A4EB0803DAF80CA00AFB03F303FB0A0014
:1019B80000EBD0704010FEF7AFFEDDE90023FFF723
:1019C8003FF802460B4630463946FEF759FDFFF709
:1019D800A7F9334B5860A9EB0A00FEF79DFEDDE935
:1019E8000223FEF703FF06460F46AAEB0B00FEF79D
:1019F80093FEDDE90423FEF7F9FE02460B46304666
:101A08003946FEF73DFD06460F46ABEB0900FEF7EB
:101A180083FEDDE90623FEF7E9FE02460B46304663
:101A28003946FEF72DFD07460E4600221A4B38466A
:101A380006F10041FEF7DAFEDDE90023FFF700F8C2
:101A480006460F46AAEB090000FB08F0ABEB0A0AB2
:101A58000AFB04FA0AFB04F400FB0848A9EB0B098B
:101A680009FB05F909FB058505EBD5756810FEF737
:101A780053FEDDE90023FEF7E3FF02460B4630463E
:101A88003946FEF7FBFCFFF74BF9054B186009B028
:101A9800BDE8F08F140500200000E03F300500206D
:101AA800380500202DE9F04182B004460B22234975
:101AB800234803F09FFC234A13680133136021680D
:101AC800214A914202D002B0BDE8F081022BFAD13E
:101AD8001C4B00221A601D4B01221A801C4BB3F9C3
:101AE8000030934221D0002003F078FF0446012003
:101AF80003F074FF0546022003F070FF8046284675
:101B0800FEF7FAFD06460F462046FEF7F5FD0446A9
:101B18000D464046FEF7F0FDCDE9000132463B4652
:101B280020462946FFF7D0FECDE703F00FFF094C0A
:101B3800206003F011FF6060C5E700BF8008002047
:101B4800F807002044050020002C014074050020FF
:101B58000000002038050020F8B5AB4B5E688E1BEE
:101B68001B68C01AFEF7D8FD04460D463046FEF73E
:101B7800D3FD22462B46FFF7FFFB02460B4600200B
:101B8800A249FEF77BFCFFF7F3F8044603F0D2FC0A
:101B980005464FF080412046FFF7AAFA002800F0DA
:101BA800A3809B492046FFF799FA002800F09C8003
:101BB8004FF080412046FFF72FF92946FFF78EFAAC
:101BC80040B14FF080412046FFF728F92946FFF73A
:101BD8008FFAE8B98F492046FFF780FA002862D0CB
:101BE80029462046FFF77AFA40B18A492046FFF78E
:101BF80015F92946FFF77CFA00284AD14FF44860C6
:101C0800FFF7C8FA844B00200021C3E90001F6E081
:101C180021462846FFF700F9FEF790FD04460D46D9
:101C28007E4BC3E900457C4BD3E9006700220023C3
:101C380030463946FFF742F898B932463B462046C7
:101C48002946FEF71BFC05460C4600224FF0804350
:101C5800284624F00041FFF759F810B16F4BC3E94B
:101C680000676E4C66A3D3E90023D4E90001FEF7B0
:101C7800BDFDFFF755F8014640F2DC50FFF74CFA7E
:101C8800674B01221A60D4E90001634BC3E90001E4
:101C9800B5E04FF44860FFF7B9FA5F4B0020002128
:101CA800C3E90001ABE029462046FFF721FA38B125
:101CB80058492046FFF7B0F82946FFF70FFA48B908
:101CC8004FF44860FFF7A2FA534B00200021C3E904
:101CD800000194E04FF44860FFF75CFA4E4B002097
:101CE8000021C3E900018AE04FF080412046FFF758
:101CF800EBF9002800F0A2802846FEF71FFD0646F3
:101D08000F464FF080412046FFF786F8FEF716FD94
:101D180000223E4BFEF7B4FB02460B4630463946DE
:101D2800FEF7EAFF00BB4FF080412046FFF776F848
:101D38002946FFF7DDF9B8B929462046FFF7CEF95D
:101D480040B134492046FFF769F82946FFF7D0F932
:101D5800002869D14FF44860FFF71CFA2E4B002089
:101D68000021C3E900014AE021462846FFF754F85C
:101D780004462849FFF7C6F920B12A492046FFF74B
:101D88004BF804462046FEF7D9FC04460D46234B83
:101D9800C3E90045204BD3E9006700220023304601
:101DA8003946FEF78BFF98B932463B46204629460E
:101DB800FEF764FB05460C4600224FF08043284698
:101DC80024F00041FEF7A2FF10B1144BC3E90067ED
:101DD800124C0BA3D3E90023D4E90001FEF706FD5A
:101DE800FEF79EFF014640F2DC50FFF795F90C4BD9
:101DF80001221A60D4E90001074BC3E90001F8BDCC
:101E08000000000000C062403805002000807640D5
:101E18000000B34300003443680500204805002053
:101E2800600500200000B4434FF44860FFF7EEF966
:101E38004F4B00200021C3E90001E0E74D4920464F
:101E4800FFF760F90028DAD02846FEF777FC064647
:101E58000F464FF080412046FEF7E0FFFEF76EFC8C
:101E68000022454BFEF70AFB02460B463046394630
:101E7800FEF738FF00BB4FF080412046FEF7CCFF4D
:101E88002946FFF72BF9B8B929462046FFF730F95C
:101E980040B13A492046FEF7BFFF2946FFF71EF931
:101EA800002855D14FF44860FFF7B0F9304B0020B7
:101EB8000021C3E90001A2E721462846FEF7ACFF4E
:101EC80004462E49FFF71EF920B12D492046FEF79A
:101ED800A3FF04462046FEF731FC04460D46294B75
:101EE800C3E90045224BD3E90067002200233046AE
:101EF8003946FEF7E3FE98B932463B462046294666
:101F0800FEF7BCFA05460C4600224FF080432846EF
:101F180024F00041FEF7FAFE10B11A4BC3E900673E
:101F2800184C11A3D3E90023D4E90001FEF75EFCA5
:101F3800FEF7F6FE014640F2DC50FFF7EDF8124BD3
:101F480001221A60D4E90001094BC3E9000156E7F0
:101F58004FF44860FFF71EF9054B00200021C3E944
:101F680000014CE7AFF300800000000000C06240B1
:101F7800680500200000B343008076400000344329
:101F88000000B443480500206005002030B4034633
:101F9800134C2268821A6068081A00FB00F002FBE2
:101FA8000200A2689A1AE468A1EB040C0CFB0CFC72
:101FB80002FB02C282420EDB02460020084C256961
:101FC8005B1B6469091B01FB01F103FB03139342CB
:101FD80003DB30BC70470120F0E70220F9E700BFBF
:101FE8000C00002010B5194B1B6823B3184A53691D
:101FF80052F8230017490C68001B023352F82330AB
:102008004A689B1A03FB03F300FB0030FEF7BAFF94
:102018000446114B18601149114B1868FEF7FEFE73
:1020280001462046FFF76EF810B1084B00221A60EF
:102038000B4B1C6010BD064B5A69911C53F82110BC
:1020480053F82200FFF788FDD0E700BF60050020A5
:102058006400002038050020580500200000704268
:102068005C0500202DE9F04106460F46A0F10F055A
:10207800A1F10F0303FB03F305FB05350024A0467C
:1020880000E00134072C17DC204603F0B9FC284B8C
:102098001B689842F5D0274A52F834309B1B02EB54
:1020A800C4025268D21B02FB02F203FB0323AB42B9
:1020B800E7DAA0461D46E4E7002400E00134022CDC
:1020C80019DC204603F056FC194B1B689842F5D0E2
:1020D8006200194951F822309B1B013251F8222025
:1020E800D21B02FB02F203FB0323AB42E6DA04F144
:1020F80008081D46E2E7B8F1070F0ADC0D4B53F854
:1021080038100E4A116003EBC8035B685360BDE8E2
:10211800F081A8F108084FEA4808074A52F8281041
:10212800064B196008F1010852F828205A60EEE7BA
:102138007005002024000020140500205005002010
:1021480072B6FEE700B591B02822002106A803F078
:10215800D7FC002301930293039304930593012270
:1021680006924FF4803307930A9202220D920E933F
:102178004FF4E0130F9306A801F0D4FC80B90F23A5
:10218800019302210291002303934FF48062049289
:10219800059301A801F006FF20B911B05DF804FB12
:1021A800FFF7CEFFFFF7CCFF2DE9F04188B001F033
:1021B8007FFCB94F384603F05BF94FF4E13003F088
:1021C80063F903F07FF903F08BF903F097F903F053
:1021D800A3F9FFF7B7FF00F0CFFB00F025FC00F0F4
:1021E8005BFC00F023FE00F089FC00F0B9FC03F072
:1021F8001DF902F049FC02F02DFC00F0E3FCA748B1
:1022080003F010FBA64800F0BDFFA64E00213046A3
:1022180001F0DEFA0421304601F0DAFA08213046EE
:1022280001F0D6FA0C21304601F0D2FA9E4E002178
:10223800304601F047FB0421304601F043FB9B4E3A
:102248000021304601F03EFB0421304601F03AFB04
:10225800974E0021304601F035FB0421304601F04D
:1022680031FB944E0021304601F02CFB042130460E
:1022780001F028FB384603F0FBF88F4E0122114687
:10228800304602F08BF800220221304602F086F830
:1022980000220421304602F081F801224FF48061C7
:1022A800304602F07BF801224FF40061304602F01C
:1022B80075F800224FF48051304602F06FF8002282
:1022C8004FF40051304602F069F801224FF4804182
:1022D800304602F063F8F5E20024F3E2774B4FF062
:1022E800FF321A60FBE203F029FB002840F0FC8271
:1022F800724B1B68002B80F2F782704B00221A6029
:10230800F2E203F01BFB012840F0F3826C4B012240
:102318001A806A4B1B68092B1BDC684B0A221A605F
:10232800684A1768D1689668D2F804C00CFB06F3AF
:1023380007FB1133106900FB1C33526902FB07339A
:1023480002FB163300FB0130FEF7E6F95E4BC3E9EA
:10235800000103F0E3FAB0F57A7F40F2CA82574BE6
:102368001B680B2B00F3C582544B0C221A60C0E289
:102378004FF44860FEF786FF5448554B03F10802B6
:1023880006920593C3690493438B0393038B0293CB
:1023980003690193C389009383894268418800884F
:1023A800FFF702F900282DD04848494B03F10C02E9
:1023B800069204330593036A0493438B0393038BB8
:1023C800029343690193C389009383898268418892
:1023D8000088FFF7E9F8A8B1384B01221A603C4A97
:1023E8001368916801FB01F103FB03135168D0687E
:1023F80000FB00F001FB01018B42B4BF0023012365
:1024080053615FE2334EB6F9008003F09FFA2F4F15
:1024180008EB480827F82800B6F9008003F09CFA72
:1024280008EB480807EB88035880B6F900800020BD
:1024380003F0B8FA08EB480807EB88035860B6F9C8
:102448000080012003F0AEFA08EB480807EB880784
:10245800B860B6F9002001321F4B83FB0213A3EBCF
:10246800E27303EB4303D31A33802BE2184B5A6908
:10247800911C53F8211053F82200FFF7B3FD03F025
:1024880071FA012840F01E820C4B02221A60134B8D
:1024980000221A6016E200BFF8070020B4070020E7
:1024A80078050020E0060020C0050020080600206E
:1024B8005006002098060020000C0140040000206F
:1024C800000000201405002030050020EC04002046
:1024D8006400002010050020565555556005002061
:1024E800944A5369B3FA83F35B09991C52F8211093
:1024F80052F82300FFF776FD03F034FA022840F083
:10250800E1818D4B03221A608C4B00221A60D9E1BD
:102518008B4B1B68002B26DB894B1A68894B03EB16
:10252800C201496853F83200FFF75CFD864B1B680F
:102538000F3BE12B06D8844B5B680E2B02DDF02B9A
:1025480040F3C081FEF7DCFE804B1B689BB17F4ADD
:10255800136801331360142B11DC012211467C48E7
:1025680001F01CFFAEE1784B59681868FFF70EFDC3
:10257800734B1860D0E7002003F0C0F9E7E76E4B13
:1025880004221A600026714B1E6003F0DFF9714FB8
:10259800386003F0E1F97860324601216C4801F0B7
:1025A800FDFE664B1E608DE1654B1A6801326A4B71
:1025B80083FB0213A3EBE27303EB4303D31A614AD1
:1025C80002EBC301496852F83300FFF70BFD03F033
:1025D800BDF90E2803D903F0B9F9F02810D9FEF790
:1025E8008FFE5A4B1B68ABB1584A1368013313600E
:1025F800142B13DC01221146554801F0CFFE61E18E
:1026080003F0AAF90E28EAD903F0A6F9F02840F257
:102618005981E4E7012003F071F9E5E7464B05220B
:102628001A600026494B1E6003F090F9494FB860C4
:1026380003F092F9F86032460121454801F0AEFEF8
:102648003E4B1E603EE13E4B1A680232424B83FB12
:102658000213A3EBE27303EB4303D31A394A02EBE9
:10266800C301496852F83300FFF7BCFC03F06EF968
:102678000E2803D903F06AF9F02810D9FEF740FEB6
:10268800324B1B68ABB1314A136801331360142B0A
:1026980013DC012211462E4801F080FE12E103F0FE
:1026A8005BF90E28EAD903F057F9F02840F20A81BD
:1026B800E4E7022003F022F9E5E71F4B06221A603F
:1026C8000026224B1E6003F041F9224F386103F0C7
:1026D80043F97861324601211D4801F05FFE174B2E
:1026E8001E60EFE07F210F20FFF77CFC164B1B6874
:1026F8005A1FF52A05D8144A5268042A01DDFA2A15
:1027080005DDFEF7FDFD0D4B00221A60DAE00F3BF8
:102718007F3A02FB02F203FB0323132B00F3D28060
:10272800FEF7EEFD044B4FF0FF321A60034B002218
:102738001A60C7E064000020040000206005002043
:10274800080000200C00002038050020400500206B
:102758000010014014050020565555554FF44860A7
:10276800FEF790FD7C487D4B03F108020692059325
:10277800C3690493438B0393038B02930369019307
:10278800C38900938389426841880088FEF70CFF5B
:10279800B8B17148714B03F10C02069204330593EA
:1027A800036A0493438B0393038B02934369019356
:1027B800C38900938389826841880088FEF7F4FE04
:1027C80098BB674EB6F9008003F0C0F8624F08EB7B
:1027D800480827F82800B6F9008003F0BDF808EB90
:1027E800480807EB88035880B6F90080002003F0FA
:1027F800D9F808EB480807EB88035860B6F9008059
:10280800012003F0CFF808EB480807EB8807786049
:10281800B6F900200132534B83FB0213A3EBE2739A
:1028280003EB4303D31A33804CE04F4B0B221A605F
:1028380003F098F80546494A1368916801FB01F1CD
:1028480003FB03135168D06800FB00F001FB010192
:102858008B42B4BF00230123536133E03F4A5369DD
:10286800B3FA83F35B09991C52F8211052F823003C
:10287800FFF7B8FB03F076F8A84223DD3A4B0A22AB
:102888001A6003F06FF80A281CD1374B0C221A6023
:1028980018E0364B59681868FFF7E4FB324B0D22F5
:1028A8001A60324A1368324908681B1A5268496824
:1028B800521A02FB02F203FB0323132B49DC0134F7
:1028C800142C39DC2B4BB3F90030002BFAD0294BF0
:1028D80000221A8003F02CF803283FF4FFAC03F021
:1028E80027F801283FF4FFAC03F022F801283FF451
:1028F80008AD1D4B1B680D2BE4D801A252F823F03C
:102908007923000875240008E9240008192500081F
:10291800B12500084F260008ED260008CD2800083C
:10292800CD280008CD28000865270008652800087C
:102938009B280008AB2800080B4B0C221A6003F0F8
:1029480011F800287FF4C8AC074B0A221A6000244B
:10295800B8E7FFF747FBB5E7EC0400206400002068
:102968001005002056555555040000203805002054
:1029780050050020740500202DE9F04188B000249E
:102988000494059406940794244B9A6942F0200213
:102998009A619A6902F020020092009A9A6942F0BC
:1029A80010029A619A6902F010020192019A9A69DA
:1029B80042F004029A619A6902F004020292029AB1
:1029C8009A6942F008029A619B6903F0080303932D
:1029D800039BDFF84C8022460121404601F0DEFCD3
:1029E800104E224647F60741304601F0D7FC012534
:1029F8000495059506940227079704A9404601F017
:102A0800ADFB47F60743049305950694079704A979
:102A1800304601F0A3FB08B0BDE8F0810010024089
:102A280000100140000C014000B587B0002302935C
:102A3800039304930593009301931548154A026084
:102A48004722426083604CF24F32C26003614361A7
:102A5800836100F0E1FC90B94FF48053029302A91E
:102A68000B4800F039FE68B90023009301936946CA
:102A7800074800F08DFF40B907B05DF804FBFFF789
:102A88005FFBE9E7FFF75CFBEEE7FFF759FBF3E7CE
:102A980078050020002C014000B58DB024220021CB
:102AA80003A803F02DF800230193029312484FF076
:102AB80080420260436083604FF6FF72C260036128
:102AC80083610323039301230593099303A900F06A
:102AD800FBFC50B900230193029301A9064800F0BA
:102AE80057FF28B90DB05DF804FBFFF729FBF1E7A4
:102AF800FFF726FBF6E700BFC005002000B58DB044
:102B08002422002103A802F0FBFF00230193029373
:102B18001148124A0260436083604FF6FF72C26038
:102B2800036183610323039301230593099303A995
:102B380000F0CAFC50B900230193029301A906488A
:102B480000F026FF28B90DB05DF804FBFFF7F8FA8E
:102B5800F1E7FFF7F5FAF6E7080600200004004061
:102B680000B58DB02422002103A802F0C9FF00237C
:102B7800019302931148124A0260436083604FF642
:102B8800FF72C260036183610323039301230593EA
:102B9800099303A900F098FC50B90023019302930C
:102BA80001A9064800F0F4FE28B90DB05DF804FB51
:102BB800FFF7C6FAF1E7FFF7C3FAF6E75006002079
:102BC8000008004000B58DB02422002103A802F0BF
:102BD80097FF0023019302931148124A0260436051
:102BE80083604FF6FF72C260036183610123039320
:102BF8000593099303A900F067FC50B900230193DA
:102C0800029301A9064800F0C3FE28B90DB05DF88B
:102C180004FBFFF795FAF1E7FFF792FAF6E700BF32
:102C280098060020000C004000B583B00368134AE2
:102C3800934205D0124A934215D003B05DF804FBC5
:102C4800104B9A6942F400629A619B6903F400632D
:102C58000093009B00221146192001F09FFE1920C5
:102C680001F0D4FEE9E7074B9A6942F400529A61F1
:102C78009B6903F400530193019BDEE7002C01409C
:102C8800003401400010024000B58FB000230A93C1
:102C98000B930C930D930368B3F1804F0BD0484A04
:102CA80093423FD0474A934256D0474A93426DD009
:102CB8000FB05DF804FB03F50433DA6942F0010252
:102CC800DA61DA6902F001020192019A9A6942F026
:102CD80004029A619A6902F004020292029A9A69BD
:102CE80042F008029A619B6903F008030393039B6F
:102CF8004FF400430A930AA9344801F02FFA082335
:102D08000A9300230B930C930AA9314801F026FA81
:102D1800304A536823F4407343F0E06343F480730C
:102D28005360C5E72C4BDA6942F00202DA61DA69CE
:102D380002F002020492049A9A6942F004029A612B
:102D48009B6903F004030593059BC0230A930AA912
:102D58001E4801F003FAABE71F4BDA6942F00402A0
:102D6800DA61DA6902F004020692069A9A6942F078
:102D780008029A619B6903F008030793079BC02325
:102D88000A930AA9124801F0E9F991E7124BDA69A6
:102D980042F00802DA61DA6902F008020892089A39
:102DA8009A6942F004029A619B6903F0040309934B
:102DB800099B03230A930AA9044801F0CFF977E78E
:102DC8000004004000080040000C004000080140DA
:102DD800000C0140000001400010024000B587B01F
:102DE8000023029303930493059302680D4B9A42C0
:102DF80002D007B05DF804FB03F55C439A6942F022
:102E080010029A619B6903F010030193019B4FF430
:102E18007073029302230393059302A9024801F0F9
:102E28009DF9E6E7003401400010014010B596B066
:102E380000241294139414941594109411940994E2
:102E48000A940B940C940D940E940F94202221460E
:102E580001A802F055FE3B483B4B03604723436003
:102E6800846042F20F73C36004614461846100F0BE
:102E7800D3FA00284BD14FF48053129312A931484A
:102E880000F02AFC002845D12E4800F0F1FA00286D
:102E980043D100231093119310A92A4800F078FD1C
:102EA80000283DD16023099300220A920B920C92CC
:102EB8000D920E920F9209A9224800F099FB002862
:102EC80031D1042209A91F4800F092FB70BB0822E7
:102ED80009A91C4800F08CFB58BB0C2209A9194809
:102EE80000F086FB40BB00230193029303930493F5
:102EF80005934FF400520692089301A9114800F077
:102F080085FDE0B90F48FFF769FF16B010BDFFF760
:102F180017F9B0E7FFF714F9B6E7FFF711F9B8E7C3
:102F2800FFF70EF9BEE7FFF70BF9CAE7FFF708F955
:102F3800CDE7FFF705F9D0E7FFF702F9D3E7FFF789
:102F4800FFF8DFE7E006002000340140FEE7FEE777
:102F5800FEE7FEE7FEE770477047704708B500F0E8
:102F6800B9FD08BD08B5024801F090FB08BD00BFD7
:102F78002C07002008B5024801F088FB08BD00BFF7
:102F88007007002008B5024800F03DF908BD00BFF1
:102F98007805002010B5044C204602F0B1F8204610
:102FA80001F046FE10BD00BFB407002008B5024876
:102FB80002F0A6F808BD00BFF807002082B00E4B4B
:102FC8009A6942F001029A619A6902F0010200923C
:102FD800009ADA6942F08052DA61DB6903F08053C3
:102FE8000193019B054A536823F0E06343F00073A3
:102FF800536002B0704700BF00100240000001405B
:1030080030B4036A23F001030362036A42688469E7
:1030180024F073040D682C4323F0020C8B6843EAF8
:103028000C03104DA84203D005F50065A84205D150
:1030380023F00803CD682B4323F00403094DA8426D
:1030480003D005F50065A84205D122F440724D6908
:103058002A438D692A43426084614A684263036255
:1030680030BC7047002C014030B4036A23F48073ED
:103078000362036A4268C46924F0730C0C6844EA6A
:103088000C0523F400738C6843EA0423114CA04216
:1030980003D004F50064A04206D123F40063CC6891
:1030A80043EA042323F480630A4CA04203D004F5C6
:1030B8000064A04207D122F440524C6942EA04124B
:1030C8008C6942EA04124260C5614A68C2630362BD
:1030D80030BC7047002C014030B4036A23F480539D
:1030E8000362036A4468C26922F4E6420D6842EA50
:1030F800052223F400538D6843EA0533094DA8429D
:1031080003D005F50065A84204D124F480444D6934
:1031180044EA85144460C2614A680264036230BCB0
:10312800704700BF002C014010B4036A046A24F001
:1031380001040462846924F0F00C4CEA021223F0C2
:103148000A030B438261036210BC704710B4046A1F
:1031580024F0100404628469036A24F4704C4CEA75
:10316800023223F0A00343EA01138261036210BC18
:103178007047836823F070030B4343F007038360B1
:103188007047000090F83D30DBB2012B2FD10223AD
:1031980080F83D300268D36843F00103D3600368C8
:1031A800154A934218D002F50062934214D0B3F145
:1031B800804F11D0A2F5983293420DD002F580626B
:1031C800934209D002F58062934205D01A6842F012
:1031D80001021A60002070479A6802F00702062A66
:1031E80007D01A6842F001021A60002070470120D7
:1031F80070470020704700BF002C0140704770479F
:1032080070477047704710B5044603681A6912F092
:10321800020F11D0DA6812F0020F0DD06FF002021F
:103228001A610123037703689B6913F0030F70D0B9
:10323800FFF7E6FF0023237723681A6912F0040FCB
:1032480012D0DA6812F0040F0ED06FF004021A617F
:103258000223237723689B6913F4407F5FD02046BD
:10326800FFF7CEFF0023237723681A6912F0080FAF
:1032780012D0DA6812F0080F0ED06FF008021A6147
:10328800042323772368DB6913F0030F4ED020460D
:10329800FFF7B6FF0023237723681A6912F0100F8F
:1032A80012D0DA6812F0100F0ED06FF010021A6107
:1032B800082323772368DB6913F4407F3DD0204639
:1032C800FFF79EFF0023237723681A6912F0010F86
:1032D80003D0DA6812F0010F36D123681A6912F0A8
:1032E800800F03D0DA6812F0800F34D123681A698E
:1032F80012F0400F03D0DA6812F0400F32D1236881
:103308001A6912F0200F03D0DA6812F0200F30D1BA
:1033180010BDFFF774FF2046FFF773FF8AE72046CA
:10332800FFF76DFF2046FFF76CFF9BE72046FFF78E
:1033380066FF2046FFF765FFACE72046FFF75FFF13
:103348002046FFF75EFFBDE76FF001021A612046D5
:10335800FEF7A8FBC1E76FF080021A61204600F073
:103368007FFBC3E76FF040021A612046FFF74AFF70
:10337800C5E76FF020021A61204600F070FBC7E72E
:103388000368244A904212D002F5006290420ED09F
:10339800B0F1804F0BD0A2F59832904207D002F5D9
:1033A8008062904203D002F58062904203D123F0FC
:1033B80070034A681343174A904212D002F500621C
:1033C80090420ED0B0F1804F0BD0A2F598329042C7
:1033D80007D002F58062904203D002F580629042E5
:1033E80003D123F44073CA68134323F080034A6966
:1033F800134303608B68C3620B688362054B984272
:1034080003D003F50063984201D10B6903630123DC
:1034180043617047002C014040B310B5044690F852
:103428003D30F3B1022384F83D30214651F8040BB6
:10343800FFF7A6FF012384F8463084F83E3084F86D
:103448003F3084F8403084F8413084F8423084F8C2
:10345800433084F8443084F8453084F83D30002007
:1034680010BD80F83C30FFF7DFFBDBE70120704739
:1034780040B310B5044690F83D30F3B1022384F808
:103488003D30214651F8040BFFF77AFF012384F8F9
:10349800463084F83E3084F83F3084F8403084F871
:1034A800413084F8423084F8433084F8443084F85A
:1034B800453084F83D30002010BD80F83C30FFF7DF
:1034C8009DFEDBE701207047002857D070B50D46F8
:1034D800044690F83D30002B4BD0022384F83D3051
:1034E8002268936823F4804323F0070393602146FE
:1034F80051F8040BFFF744FF21688A688B690E6A4C
:103508002868104323F4407C2CF0030CAA68AB69AC
:1035180042EA032343EA0C0323F47C4323F0FC032D
:10352800EA69D5F80CC04CEA022C4CEA030C2A6A6A
:1035380013032A6943EA021343EA0C0326F022061E
:103548006A686D6942EA05123243886021688B61B6
:1035580023681A62012384F8463084F83E3084F8E0
:103568003F3084F8423084F8433084F83D300020FE
:1035780070BD80F83C30FFF787FBAEE7012070474D
:1035880030B4036A23F010030362036A4468826953
:1035980022F4E6420D6842EA052223F020038D68F2
:1035A80043EA0513114DA84203D005F50065A8426A
:1035B80006D123F08003CD6843EA051323F04003C6
:1035C8000A4DA84203D005F50065A84207D124F4A6
:1035D80040644D6944EA85048D6944EA8504446081
:1035E80082614A688263036230BC7047002C0140E4
:1035F80038B590F83C30012B60D004460D460123C5
:1036080080F83C300C2A1AD8DFE802F0071919199B
:103618001D1919193119191944000068FFF7F0FC30
:103628002268936943F0080393612268936923F041
:10363800040393612268936929690B43936100200D
:1036480084F83C0038BD0068FFF79AFF2268936948
:1036580043F4006393612268936923F48063936160
:1036680022689369296943EA01239361E7E70068BF
:10367800FFF7FAFC2268D36943F00803D361226894
:10368800D36923F00403D3612268D36929690B4302
:10369800D361D4E70068FFF71FFD2268D36943F4BC
:1036A8000063D3612268D36923F48063D3612268FD
:1036B800D369296943EA0123D361C0E70220C1E73E
:1036C80010B4846824F47F4C42EA03220A4342EA95
:1036D8000C02826010BC704790F83C30012B66D019
:1036E80010B50446012380F83C30022380F83D30B1
:1036F8000268936823F47F4323F0770393600B6891
:10370800602B40D022D8402B47D00BD9502B0ED15C
:10371800CA6849680068FFF707FD50212068FFF76D
:1037280028FD04E0202B0CD008D9302B09D0012328
:1037380084F83D30002084F83C0010BD0BB1102BFC
:10374800F5D119462068FFF714FDF0E7702B0ED06D
:10375800B3F5005FEBD1CB684A6889680068FFF76A
:10376800AFFF2268936843F480439360DFE7CB6838
:103778004A6889680068FFF7A3FF2268936843F0E6
:1037880077039360D3E7CA6849680068FFF7DEFCEF
:1037980060212068FFF7EDFCC9E7CA68496800683E
:1037A800FFF7C2FC40212068FFF7E3FCBFE70220D7
:1037B800704701F01F01012303FA01FC036A23EAA1
:1037C8000C030362036A02FA01F10B4303627047B8
:1037D80010B50446084600293AD194F83E30DBB2C9
:1037E800013B18BF0123002B66D1002849D10223D1
:1037F80084F83E30012201462068FFF7DAFF23688B
:103808002F4A934203D002F50062934203D15A6CC7
:1038180042F400425A642368294A934241D002F58F
:10382800006293423DD0B3F1804F3AD0A2F598326E
:10383800934236D002F58062934232D002F580621C
:1038480093422ED01A6842F001021A60002032E03A
:10385800042908D008290DD094F84130DBB2013B87
:1038680018BF0123BFE794F83F30DBB2013B18BF14
:103878000123B8E794F84030DBB2013B18BF0123BD
:10388800B1E7042805D0082807D0022384F841307E
:10389800B0E7022384F83F30ACE7022384F84030D5
:1038A800A8E79A6802F00702062A07D01A6842F0C9
:1038B80001021A60002010BD0120FCE70020FAE791
:1038C800002C014038B5044690F83E00C0B294F888
:1038D8003F3094F84220D2B294F843C00D46B1B9B3
:1038E800012849D1012A48D1022384F83E3084F8BE
:1038F80042307DB3042D39D0012200212068FFF722
:1039080058FF012204212068FFF753FF27E0DBB2AC
:103918005FFA8CFC042912D0012833D1012B2CD159
:10392800012A31D1BCF1010F30D1022384F83E3095
:1039380084F83F3084F8423084F84330D9E7012BCB
:103948001CD1BCF1010F1BD1022384F83F3084F84D
:103958004330CEE7012200212068FFF72AFF2268C2
:10396800136843F001031360002006E001220421DC
:103978002068FFF71EFFF2E7012038BD0120FCE7B1
:103988001846FAE70120F8E71846F6E71046F4E784
:1039980090F83C30012B34D010B4012380F83C302F
:1039A800022380F83D3003685A689C6822F0700C46
:1039B8000A6842EA0C025A600368134A934212D01A
:1039C80002F5006293420ED0B3F1804F0BD0A2F5FE
:1039D8009832934207D002F58062934203D002F5F1
:1039E8008062934204D124F080044A6814439C60A6
:1039F800012380F83D30002380F83C30184610BC85
:103A080070470220704700BF002C014090F83C30FE
:103A1800012B22D0012380F83C30CB6823F440737B
:103A28008A68134323F480634A68134323F40063CA
:103A38000A68134323F480530A69134323F4005399
:103A48004A69134323F48043CA69134302685364E1
:103A5800002380F83C3018467047022070477047B2
:103A68007047000010B504460E4B18784FF47A736F
:103A7800B3FBF0F30C4A1068B0FBF3F000F0D4FF8E
:103A880068B90F2C01D901200AE0002221464FF025
:103A9800FF3000F083FF054B1C60002000E0012090
:103AA80010BD00BF7C0000208400002080000020A2
:103AB80008B5074A136843F010031360032000F0A9
:103AC8005BFF0F20FFF7CEFFFFF778FA002008BD55
:103AD80000200240034A1168034B1B780B44136013
:103AE800704700BF280700207C000020014B1868A1
:103AF800704700BF2807002082B0084B1B68084A9F
:103B0800A2FB03235B0A00FB03F3019300BF019BA5
:103B18005A1E0192002BF9D102B070478400002090
:103B2800D34D6210002800F0F18170B582B00446D0
:103B3800036813F0010F2CD0994B5B6803F00C035A
:103B4800042B1DD0964B5B6803F00C03082B12D096
:103B58006368B3F5803F41D0002B55D103F1804312
:103B680003F504331A6822F480321A601A6822F4C2
:103B780080221A6037E08A4B5B6813F4803FE7D0F5
:103B8800874B1B6813F4003F03D06368002B00F0D9
:103B9800BF81236813F0020F75D0814B5B6813F067
:103BA8000C0F5FD07E4B5B6803F00C03082B54D0DE
:103BB8002369002B00F08A807A4B01221A60FFF7F4
:103BC80095FF0546764B1B6813F0020F75D1FFF77A
:103BD8008DFF401B0228F5D903209EE1704A136827
:103BE80043F480331360636843B3FFF77FFF0546F0
:103BF8006B4B1B6813F4003FCBD1FFF777FF401BDB
:103C08006428F5D9032088E1B3F5A02F09D0644BC7
:103C18001A6822F480321A601A6822F480221A6024
:103C2800E1E703F18043A3F53C331A6842F48022AC
:103C38001A601A6842F480321A60D4E7FFF756FF18
:103C48000546574B1B6813F4003FA2D0FFF74EFF01
:103C5800401B6428F5D903205FE1514B5B6813F4DE
:103C6800803FA5D14E4B1B6813F0020F03D0236988
:103C7800012B40F04F814A4A136823F0F803616929
:103C880043EAC1031360236813F0080F33D0A36914
:103C9800002B5CD0434B0122C3F88024FFF726FF9A
:103CA80005463F4B5B6A13F0020F21D1FFF71EFF59
:103CB800401B0228F5D903202FE1394A136823F065
:103CC800F803616943EAC1031360DCE7354B00225E
:103CD8001A60FFF70BFF0546314B1B6813F0020F04
:103CE800D1D0FFF703FF401B0228F5D9032014E1C8
:103CF8000120FFF701FF236813F0040F00F09680FE
:103D0800274BDB6913F0805F34D1254BDA6942F029
:103D18008052DA61DB6903F080530193019B01252E
:103D2800214B1B6813F4807F26D0E368012B3DD01C
:103D3800002B53D103F1804303F504331A6A22F0B0
:103D480001021A621A6A22F004021A6233E0154B61
:103D58000022C3F88024FFF7C9FE0546104B5B6AB2
:103D680013F0020FC7D0FFF7C1FE401B0228F5D998
:103D78000320D2E00025D3E70B4A136843F480738D
:103D88001360FFF7B3FE0646074B1B6813F4807FEA
:103D9800CBD1FFF7ABFE801B6428F5D90320BCE02C
:103DA8000010024000004242007000405F4A136A5F
:103DB80043F001031362E36833B3FFF797FE064647
:103DC8005A4B1B6A13F0020F2FD1FFF78FFE801B8F
:103DD80041F288339842F3D903209EE0052B09D09D
:103DE800524B1A6A22F001021A621A6A22F004027D
:103DF8001A62E0E74D4B1A6A42F004021A621A6A24
:103E080042F001021A62D6E7FFF770FE0646474BFA
:103E18001B6A13F0020F08D0FFF768FE801B41F2FF
:103E280088339842F3D9032077E0E5B9E369002B9A
:103E380072D03E4A526802F00C02082A56D0022B71
:103E480017D03B4B00221A66FFF750FE0446374B4B
:103E58001B6813F0007F47D0FFF748FE001B0228BD
:103E6800F5D9032059E0314AD36923F08053D3614F
:103E7800DCE72F4B00221A66FFF738FE05462B4B6E
:103E88001B6813F0007F06D0FFF730FE401B0228A6
:103E9800F5D9032041E0236AB3F5803F1AD02349BE
:103EA8004B6823F47413226A606A024313434B601D
:103EB8001F4B01221A66FFF719FE04461B4B1B68AD
:103EC80013F0007F0ED1FFF711FE001B0228F5D971
:103ED800032022E0154A536823F40033A1680B43FA
:103EE8005360DCE7002018E0002016E0012B16D014
:103EF8000E4B5B6803F48031226A914211D103F4BE
:103F08007013626A93420ED1002006E001207047C8
:103F1800012002E0012000E0002002B070BD012075
:103F2800FBE70120F9E70120F7E700BF0010024096
:103F38000000424286B0174B0FCB0DF1180C0CE96C
:103F48000F0040F20123ADF80430134B5B6803F017
:103F58000C02082A02D0114806B07047C3F3834206
:103F680018326A4412F8100C13F4803F0DD00A4B33
:103F78005B68C3F3404318336B4413F8143C074A97
:103F880002FB00F0B0FBF3F0E6E7054B03FB00F0A3
:103F9800E2E700BFA86400080010024000127A009F
:103FA80000093D00002800F0A08070B50D460446C9
:103FB800524B1B6803F007038B420BD24F4A13681E
:103FC80023F007030B431360136803F007038B42C6
:103FD80040F08D80236813F0020F17D013F0040F00
:103FE80004D0474A536843F4E0635360236813F0EE
:103FF800080F04D0424A536843F460535360404A60
:10400800536823F0F003A1680B435360236813F04F
:10401800010F31D06368012B20D0022B25D0384AFC
:10402800126812F0020F64D035494A6822F0030280
:1040380013434B60FFF75AFD0646314B5B6803F0AC
:104048000C036268B3EB820F16D0FFF74FFD801B9D
:1040580041F288339842F0D9032045E0284A126893
:1040680012F4003FE0D101203EE0254A126812F028
:10407800007FD9D1012037E0204B1B6803F00703EC
:10408800AB420AD91D4A136823F007032B43136078
:10409800136803F00703AB422DD1236813F0040F14
:1040A80006D0174A536823F4E063E1680B43536072
:1040B800236813F0080F07D0114A536823F460539C
:1040C800216943EAC1035360FFF734FF0C4B5B6877
:1040D800C3F303130B4AD35CD8400B4B18600B4B4C
:1040E8001868FFF7BFFC002070BD01207047012051
:1040F800FAE70120F8E70120F6E700BF00200240B8
:1041080000100240BC6400088400002080000020E9
:10411800014B1868704700BF8400002008B5FFF7FE
:10412800F7FF044B5B68C3F30223034AD35CD84010
:1041380008BD00BF00100240CC64000808B5FFF7B6
:10414800E7FF044B5B68C3F3C223034AD35CD84040
:1041580008BD00BF00100240CC64000870B582B0F2
:104168000024A446B0E0874DAA4210D007D9864D56
:10417800AA420CD005F58035AA4208D013E0A5F56F
:104188008015AA4203D005F57025AA4207D18A688E
:10419800002A62D0012A5BD04361082403E0A5F518
:1041A8008015AA42F3D0BEF1FF0F58D80646BEF1DB
:1041B800FF0F56D84FEA8C0233680F25954023EA43
:1041C800050304FA02F2134333604B6813F0805F6F
:1041D80078D06E4B9A6942F001029A619B6903F0AC
:1041E80001030193019B4FEA9C02951C684B53F80D
:1041F80025600CF003039D000F23AB4026EA03065D
:10420800644B984233D003F58063984200F098805D
:1042180003F58063984200F0958003F58063984227
:1042280000F0928003F58063984200F08F8003F5D8
:104238008063984219D006231AE0CC68B3E7CC68AB
:104248000434B0E7CC680834ADE7CC680C34AAE78E
:1042580003610824A7E70024A5E70424A3E7061DB3
:10426800A5E7ACF108029200A6E7052300E00023C9
:10427800AB4033430232464D45F822304B6813F4C5
:10428800803F65D0444A136843EA0E0313604B68C5
:1042980013F4003F62D0404A536843EA0E03536068
:1042A8004B6813F4801F5FD03B4A936843EA0E03C0
:1042B80093604B6813F4001F5CD0374AD36843EA15
:1042C8000E03D3600CF1010C0A6832FA0CF357D0D4
:1042D800012303FA0CF302EA030E33EA0202F1D1D6
:1042E8004A68122A3FF63FAF122A3FF65CAF01A593
:1042F80055F822F097410008434200084D42000853
:104308005F420008AF410008AF410008AF41000814
:10431800AF410008AF410008AF410008AF410008B5
:10432800AF410008AF410008AF410008AF410008A5
:10433800AF410008AF410008474200085342000857
:10434800012395E7022393E7032391E704238FE7EB
:10435800114A136823EA0E03136098E70E4A53685C
:1043680023EA0E0353609BE70B4A936823EA0E0384
:1043780093609EE7084AD36823EA0E03D360A1E757
:1043880002B070BD00002210000031100010024081
:104398000000014000080140000401400AB1016129
:1043A800704709040161704730B40124056CAC40C2
:1043B800C56B6C60046863604368102B05D00368A4
:1043C80099600368DA6030BC704703689A600368D4
:1043D800D960F8E700283AD010B4024600681D4BAF
:1043E800984229D81C4B03441C49A1FB03131B0901
:1043F8009B0013641A4BD363022382F821300168AF
:1044080021F47F5121F03001536894682343D46824
:104418002343146923435469234394692343D46988
:1044280023430B43036000209063012382F821306B
:1044380082F8200010BC70470A4B03440749A1FBCF
:1044480003131B099B001364074BD363D4E70120B4
:10445800704700BF07040240F8FFFDBFCDCCCCCCAD
:1044680000000240F8FBFDBF0004024038B50446D6
:1044780090F82000012831D0012084F8200094F819
:104488002100012804D0002384F82030022038BD00
:10449800022084F821000020A0632568286820F005
:1044A800010028602046FFF77FFFE36A5BB12268BE
:1044B800136843F00E0313602268136843F0010386
:1044C80013600020E3E72268136823F004031360F5
:1044D8002268136843F00A031360EDE70220D6E769
:1044E80090F82130022B06D004238363002380F840
:1044F8002030012070470268136823F00E03136010
:104508000268136823F001031360036CC16B012276
:1045180002FA03F34B6080F82120002380F8203052
:104528001846704708B590F82130022B03D00423B1
:104538008363012008BD0268136823F00E0313602B
:104548000268136823F00103136003684B4A93421F
:104558004ED9783A934224D01432934230D0143250
:1045680093422FD0143293422FD0143293422FD03B
:10457800143293422FD0143293422FD002F5627234
:1045880093422ED0143293422DD0143293422CD021
:104598001432934202D04FF4803203E04FF4805239
:1045A80000E00122364B5A60012380F821300023B5
:1045B80080F82030436B002B5ED098470020B9E785
:1045C8001022EFE74FF48072ECE74FF48052E9E7EE
:1045D8004FF48032E6E74FF48012E3E74FF0807241
:1045E800E0E70122DEE71022DCE74FF48072D9E72A
:1045F800244A934224D01432934225D01432934251
:1046080024D01432934224D01432934224D014324A
:10461800934224D01432934224D002F5627293421A
:1046280023D01432934222D01432934221D0143230
:10463800934202D04FF4803203E04FF4805200E0FE
:104648000122114B5A60AFE71022FAE74FF480724B
:10465800F7E74FF48052F4E74FF48032F1E74FF474
:104668008012EEE74FF08072EBE70122E9E71022B3
:10467800E7E74FF48072E4E700205BE78000024040
:1046880000040240080002400000024038B5C36B35
:104698001A6804682568016C04238B40134200F0F3
:1046A8009B8015F0040F00F09780236813F0200F0B
:1046B80003D1236823F00403236003689A4A9342D2
:1046C80046D9783A934224D01432934228D01432EF
:1046D800934227D01432934227D01432934227D0E2
:1046E8001432934227D01432934227D002F56272D3
:1046F800934226D01432934225D01432934224D0C8
:104708001432934202D04FF4802203E04FF48042E7
:1047180000E00422854B5A60C36A03B1984738BD4C
:104728004022F7E74FF48062F4E74FF48042F1E764
:104738004FF48022EEE74FF48002EBE74FF08062FF
:10474800E8E70422E6E74022E4E74FF48062E1E785
:10475800774A934224D01432934225D0143293429C
:1047680024D01432934224D01432934224D01432E9
:10477800934224D01432934224D002F562729342B9
:1047880023D01432934222D01432934221D01432CF
:10479800934202D04FF4802203E04FF4804200E0BD
:1047A8000422644B5A60B7E74022FAE74FF480626C
:1047B800F7E74FF48042F4E74FF48022F1E74FF433
:1047C8008002EEE74FF08062EBE70422E9E740223F
:1047D800E7E74FF48062E4E702238B40134200F0DE
:1047E800AB8015F0020F00F0A780236813F0200FAC
:1047F80006D1236823F00A032360012380F82130BF
:104808000368494A93424BD9783A934224D01432E8
:1048180093422DD0143293422CD0143293422CD090
:10482800143293422CD0143293422CD01432934237
:104838002CD002F5627293422BD0143293422AD0C4
:104848001432934229D01432934202D04FF40032EA
:1048580003E04FF4005200E00222344B5A60002378
:1048680080F82030836A002B3FF459AF984756E709
:104878002022F2E74FF40072EFE74FF40052ECE722
:104888004FF40032E9E74FF40012E6E74FF0007208
:10489800E3E70222E1E72022DFE74FF40072DCE7DA
:1048A800234A934224D01432934225D0143293429F
:1048B80024D01432934224D01432934224D0143298
:1048C800934224D01432934224D002F56272934268
:1048D80023D01432934222D01432934221D014327E
:1048E800934202D04FF4003203E04FF4005200E04C
:1048F8000222104B5A60B2E72022FAE74FF4007206
:10490800F7E74FF40052F4E74FF40032F1E74FF4C1
:104918000012EEE74FF00072EBE70222E9E72022EF
:10492800E7E74FF40072E4E7800002400004024029
:104938000800024000000240082303FA01F1114276
:104948003FF4EDAE15F0080F3FF4E9AE236823F00D
:104958000E032360026CC16B012303FA02F24A6062
:10496800836380F82130002380F82030036B002B0C
:104978003FF4D5AE9847D2E6074AD36823F4E063FC
:104988001B041B0C000200F4E060034343F0BF6308
:1049980043F40033D360704700ED00E000B5194BD5
:1049A800DB68C3F30223C3F1070CBCF1040F28BF73
:1049B8004FF0040C03F1040EBEF1060F18D9033BA7
:1049C8004FF0FF3E0EFA0CFC21EA0C0199400EFA5A
:1049D80003F322EA0303194300280BDB0901C9B2D8
:1049E80000F1604000F5614080F800135DF804FBB9
:1049F8000023E5E700F00F000901C9B2024B195482
:104A0800F4E700BF00ED00E014ED00E0002807DB4C
:104A180000F01F02400901239340024A42F8203067
:104A2800704700BF00E100E00138B0F1807F0BD291
:104A38004FF0E0235861054AF02182F82310002046
:104A4800986107221A6170470120704700ED00E065
:104A58007047000008B50A480A4B03604FF4E13379
:104A6800436000238360C36003610C224261836159
:104A7800C36100F0C9F900B908BDFDF761FBFBE7A8
:104A8800B40700200038014008B50A480A4B036003
:104A98004FF4E133436000238360C36003610C2259
:104AA80042618361C36100F0AFF900B908BDFDF749
:104AB80047FBFBE7F80700200044004070B588B0CA
:104AC80004460023049305930693079303684B4A0F
:104AD800934204D04A4A934249D008B070BD494B2A
:104AE8009A6942F480429A619A6902F4804200927B
:104AF800009A9A6942F004029A619B6903F00403E0
:104B08000193019B4FF4007304930223059303233D
:104B180007933D4E04A93046FFF720FB4FF480630E
:104B2800049300250595069504A93046FFF716FB62
:104B38003648374B0360456085608023C360056154
:104B4800456185614FF44053C361FFF743FC58B991
:104B58002E4BA3635C62002211462520FFF71EFF3F
:104B68002520FFF753FFB8E7FDF7EAFAF0E7254BF2
:104B7800DA6942F40032DA61DA6902F40032029248
:104B8800029A9A6942F004029A619B6903F004034D
:104B98000393039B0423049302230593032307939E
:104BA800194E04A93046FFF7D9FA082304930025C3
:104BB8000595069504A93046FFF7D0FA1548164B17
:104BC8000360456085608023C36005614561856138
:104BD8004FF44053C361FFF7FDFB58B90D4BA36376
:104BE8005C62002211462620FFF7D8FE2620FFF738
:104BF8000DFF72E7FDF7A4FAF0E700BF00380140A7
:104C08000044004000100240000801402C0700202A
:104C180058000240700700206C00024008B5034BA2
:104C2800834200D008BD00F081FDFBE7F8070020B3
:104C380010B5094C204600F082F9084B1B685868EB
:104C4800C0B2C043C0B200F0FFFDFF2204492046B5
:104C580000F0D0FB10BD00BFB40700202C070020D7
:104C6800C00800200268D36823F0C003D360202363
:104C780080F83D3070470268D36823F49073D3609E
:104C88000268536923F001035361036B012B05D0BC
:104C9800202380F83E300023036370470268D368FE
:104CA80023F01003D360F3E790F83D30DBB2212BFB
:104CB80001D0022070478368B3F5805F17D0036A7C
:104CC8005A1C02621A7803685A60C38C9BB2013B73
:104CD8009BB2C3844BB90268D36823F08003D360C6
:104CE8000268D36843F04003D3600020704703692B
:104CF800002BE4D1036A1B880268C3F308035360DE
:104D0800036A02330362E0E710B5044602681369D8
:104D180023F44053C1680B4313618368026913434A
:104D280042691A430168CB6823F4B05323F00C039B
:104D38001343CB600268536923F4407381690B43C2
:104D480053610268134B9A4220D0FFF7E7F90246F5
:104D580002EB820202EB820263689B00B2FBF3F271
:104D68000D48A0FB02314909642303FB11231B01F1
:104D78003233A0FB03235B0903F0F00202EB0112BC
:104D880003F00F03216813448B6010BDFFF7D6F9B9
:104D98000246DDE7003801401F85EB512DE9F84355
:104DA80005460F4616469946DDF820802C6824688B
:104DB80037EA04030CBF4FF0010C4FF0000CB44568
:104DC8001FD1B8F1FF3FF1D0B8F1000F05D0FEF7C1
:104DD8008DFEA0EB09004045E8D92A68D36823F482
:104DE800D073D3602A68536923F0010353612023E9
:104DF80085F83D3085F83E30002385F83C300320A7
:104E080000E00020BDE8F88358B310B5044690F8D8
:104E18003D300BB3242384F83D302268D36823F453
:104E28000053D3602046FFF76FFF2268136923F40D
:104E3800904313612268536923F02A03536122685F
:104E4800D36843F40053D36000202064202384F8FF
:104E58003D3084F83E3010BD80F83C30FFF72EFE20
:104E6800D8E7012070472DE9F04182B01E4690F83E
:104E78003D30DBB2202B54D104460D469046002924
:104E880053D0002A53D090F83C30012B51D0012345
:104E980080F83C3000230364212380F83D30FEF77E
:104EA80025FE0746A4F82480A4F82680A368B3F555
:104EB800805F05D04FF00008002384F83C3012E0F2
:104EC800236913B14FF00008F6E7A8460025F3E779
:104ED80038F8023B2268C3F308035360E28C92B2AD
:104EE800013A92B2E284E38C9BB273B100963B46DE
:104EF800002280212046FFF751FFE0B9002DE7D0BE
:104F080015F8012B23685A60E8E700963B46002213
:104F180040212046FFF742FF78B9202384F83D302E
:104F280000E0022002B0BDE8F0810120FAE701208C
:104F3800F8E70220F6E70320F4E70320F2E710B5CC
:104F4800044601684A6990F83D30DBB2212B0AD04B
:104F580021684A6902F0400294F83E30DBB2222B05
:104F680011D0002010BD02F08002002AF0D04B6959
:104F780023F080034B61406B08B1FFF7B1FA20467C
:104F8800FFF770FEE4E7002AEBD04B6923F04003FB
:104F98004B61A06B08B1FFF7A3FA2046FFF76BFE41
:104FA800DFE7704708B50168CA6822F04002CA60A6
:104FB800202280F83D20FFF7F4FF002008BD70474D
:104FC800704710B5446A23685A6994F83D30DBB2DB
:104FD800212B10D023685A6902F0400294F83E3021
:104FE800DBB2222B11D0236C43F01003236420463C
:104FF800FFF7E6FF10BD02F08002002AEAD0002386
:10500800E3842046FFF72EFEE4E7002AEBD00023D6
:10501800E3852046FFF72FFEE5E708B5406A002341
:10502800C385C384FFF7CCFF08BD704790F83E30B6
:10503800DBB2222B60D18368B3F5805F46D0826AE9
:10504800B3F5805F04D0002B4DD10369002B4AD102
:1050580003685B681370836A01338362C38D9BB2F4
:10506800013B9BB2C385002B48D100B583B00268D1
:10507800D36823F02003D3600268D36823F48073D5
:10508800D3600268536923F001035361202380F839
:105098003E30036B012B2CD1002303630268D368D5
:1050A80023F01003D36003681A6812F0100F06D0BB
:1050B800002201921A6801925B680193019B818D1D
:1050C800FFF7B3FF002003B05DF804FB0269002A74
:1050D800B5D1826A03685B68C3F308031380836AE7
:1050E80002338362BAE703685B6803F07F031370D7
:1050F800B1E7FFF793FDE5E702207047002070470E
:1051080030B583B0044602681368D068516913F05B
:105118000F0505D113F0200F02D010F0200F19D180
:105128002DB111F0010119D110F4907F16D1216B26
:10513800012975D013F0800F03D010F0800F40F0D4
:10514800D78013F0400F03D010F0400F40F0D48008
:1051580003B030BD2046FFF769FFF9E713F0010FF0
:1051680006D010F4807F03D0226C42F00102226442
:1051780013F0040F04D019B1226C42F00202226429
:1051880013F0020F04D019B1226C42F00402226419
:1051980013F0080F07D010F0200F00D119B1226CBE
:1051A80042F008022264226C002AD1D013F0200FAA
:1051B80002D010F0200F21D123685B6903F040036F
:1051C800226C12F0080F00D123B32046FFF753FDDD
:1051D80023685A6912F0400F18D05A6922F0400229
:1051E8005A61A36B73B1464A5A63A06BFFF79AF9E9
:1051F8000028ADD0A06B436B9847A9E72046FFF77E
:1052080015FFD9E72046FFF7DBFEA1E72046FFF7A9
:10521800D7FE9DE72046FFF7D3FE0023236497E7D8
:1052280013F0100F86D010F0100F83D000230193D5
:105238001368019353680193019B536913F0400F5E
:1052480032D0A16B0B685B689BB2002B80D0A08D1D
:1052580098427FF67DAFE3858B69202B08D1A18D1D
:10526800E38D9BB2C91A89B22046FFF7DEFE6FE7CD
:10527800D36823F48073D3602268536923F0010351
:1052880053612268536923F040035361202384F853
:105298003E30002323632268D36823F01003D360D1
:1052A800A06BFFF71DF9DAE7A18DE38D9BB2C91A50
:1052B80089B2E38D9BB2002B3FF44AAF00293FF43B
:1052C80047AFD36823F49073D3602268536923F0FF
:1052D80001035361202384F83E30002323632268AE
:1052E800D36823F01003D3602046FFF79EFE2FE714
:1052F8002046FFF7D9FC2BE72046FFF753FE27E7A8
:105308002350000808B5406A036B012B02D0FFF751
:1053180056FE08BD818D4908FFF787FEF9E708B5F5
:105328000346406A1B681B6813F0200F16D1002340
:10533800C3850268D36823F48073D3600268536915
:1053480023F0010353610268536923F0400353615A
:10535800202380F83E30036B012B05D0036B012B13
:1053680008D0FFF75BFC08BD0268D36823F0100380
:10537800D360F3E7818DFFF758FEF4E730B583B0CB
:10538800044613468162828500250564222280F83E
:105398003E20826B14489062A26B1448D062A26BC4
:1053A80013481063A26B556320680A46011DA06B61
:1053B800FFF75CF8019523681A6801925A68019210
:1053C800019A84F83C50DA6842F48072DA60226804
:1053D800536943F0010353612268536943F0400362
:1053E8005361284603B030BD275300080D53000809
:1053F800CB4F000808B590F83E30DBB2202B0DD11A
:1054080071B17AB190F83C30012B0DD0012380F8AE
:105418003C3000230363FFF7B1FF00E0022008BD22
:105428000120FCE70120FAE70220F8E700B583B085
:105438000E4B5A6942F001025A615B6903F001039D
:105448000193019B002211460F20FFF7A7FA0F20B6
:10545800FFF7DCFA002211461020FFF79FFA102010
:10546800FFF7D4FA03B05DF804FB00BF0010024058
:1054780008B5034B18600B220249FFF7BBFF08BDB4
:105488008C0800208008002008B5B0F5E13F03D063
:10549800B0F5165F09D008BD4FF0FF330322074966
:1054A80007480068FFF7DFFCF5E74FF0FF330322FA
:1054B800024903480068FFF7D6FCECE7900000209B
:1054C8008C08002008B54FF0FF3303220249034837
:1054D8000068FFF7C8FC08BD940000208C08002075
:1054E80008B54FF0FF330322024903480068FFF76D
:1054F800BAFC08BD8C0000208C08002008B54FF0CD
:10550800FF330322024903480068FFF7ACFC08BDDB
:10551800880000208C08002008B54FF0FF330322D4
:10552800024903480068FFF79EFC08BD9800002068
:105538008C080020014B9868704700BF480800207D
:1055480038B5164CE078A37843EA0020FBF71AFD3B
:105558004FF06051FAF7DAFE1149FAF7D7FE114D0C
:1055680028606079237943EA0020FBF70BFD4FF0B0
:105578006051FAF7CBFE0A49FAF7C8FE6860E0798D
:10558800A37943EA0020FBF7FDFC4FF06051FAF7DE
:10559800BDFE0349FAF7BAFEA86038BD68080020C6
:1055A800000034434808002038B5274CE078A37839
:1055B80043EA0020FBF7E6FC4FF06051FAF7A6FE3D
:1055C8004FF08341FAF7A2FEFBF7B8F81CA3D3E922
:1055D8000023FBF70BF9FBF7CBFB1C4D2860607928
:1055E800237943EA0020FBF7CDFC4FF06051FAF72E
:1055F8008DFE4FF08341FAF789FEFBF79FF810A361
:10560800D3E90023FBF7F2F8FBF7B2FB6860E07917
:10561800A37943EA0020FBF7B5FC4FF06051FAF795
:1056280075FE4FF08341FAF771FEFBF787F804A384
:10563800D3E90023FBF7DAF8FBF79AFBA86038BD3B
:105648009A99999999992340680800203C08002064
:1056580038B5164CE078A37843EA0020FBF792FCB3
:105668004FF06051FAF752FE1149FAF74FFE114D0B
:1056780028606079237943EA0020FBF783FC4FF028
:105688006051FAF743FE0A49FAF740FE6860E0798C
:10569800A37943EA0020FBF775FC4FF06051FAF755
:1056A80035FE0349FAF732FEA86038BD68080020C5
:1056B8000000FA445C08002008B50D4B5A7A187AA5
:1056C80040EA02200B4B83FB0030C011FBF724F8A3
:1056D80005A3D3E90023FAF7D3FEFBF749FB064BF2
:1056E800186008BDAFF30080A4703D0AD74342405C
:1056F80068080020616060605808002008B50A4BFF
:105708005B78522B09D0532B0AD0512B02D0FFF7CC
:10571800D3FF08BDFFF748FFF9E7FFF799FFF6E762
:10572800FFF70EFFF3E700BF6808002008B5364B07
:105738001978364BA3FB0123DB0803EB830203EB49
:105748004203C91AC9B2324B5B5C552B24D02E4B8D
:1057580000221A702C4B1B780A2B2FD82C4AD25CAB
:10576800552A2BD00133284A1370F3E7294A1278B7
:105778001A44274810F803C0274800F802C001332C
:105788009942F3DC00231A46092B07DC2249C95C3D
:105798000A44D2B20133F7E70023F1E71E4B9B7AA4
:1057A80093420FD1002304E01B4AD15C1B4AD15419
:1057B80001330A2BF8DDFFF7A1FF03E0C3F10B0368
:1057C800144A1370104B93F800C0104BA3FB0C2322
:1057D800DB0803EB830203EB4203ACEB030C5FFA39
:1057E8008CFC634606E0A3EB0C020949C85C0A4935
:1057F800885401330A2BF6DD0B220549084B18683B
:10580800FFF7F8FD08BD00BF55080020A38B2EBA8E
:105818008008002054080020740800206808002030
:105828008C08002008B5064A10600268D36843F067
:105838001003D360FF220349FFF7DCFD08BD00BF5A
:10584800F4090020C008002070B5044630280BD0A9
:105858002F2C08D8254B1D78DDB12B19302B1FD0E4
:10586800224B00221A7070BD214B93F82E300D2B5D
:10587800EED11F4B93F82F300A2BE9D11D4C1C4D4C
:105888000FCD0FC40FCD0FC495E80F0084E80F00AB
:10589800E9E71C70224616491748FAF7C1FCE2E707
:1058A800A31E134AD35C0D2B05D0012C13D00F4B2C
:1058B80000221A70D7E7631ED35C0A2BF5D10D4E70
:1058C8002A460D493046FAF7ABFC224608497019BA
:1058D800FAF7A6FCEBE7064B1B780A2BE7D1064B39
:1058E80093F82E300D2BE2D1E9E700BFF009002034
:1058F800C008002090080020C009002008B54FF01B
:10590800FF3301220349014403480068FFF7ABFA5B
:1059180008BD00BF9C000020F4090020034B1A7842
:10592800587800EB022080B2704700BF9008002032
:10593800014B98788009704790080020024B9878AE
:10594800C0F34010704700BF90080020014BD87882
:10595800704700BF90080020014B1879704700BFBE
:1059680090080020024B587900F00F00704700BFE4
:105978009008002030B1012808D002280BD04FF63B
:10598800FF707047064B187A80097047044B187AE5
:10599800C0F301107047024B187AC0F381007047BA
:1059A80090080020012814D8820002F109030A494E
:1059B80011F803C002F10A03CB5C1B0403EB0C6370
:1059C8000B328A5C03EB0223033011F820001844E1
:1059D80070474FF0FF3070479008002002280AD81F
:1059E80043001133054AD35C093012F8100000EB6C
:1059F800032080B270474FF6FF7070479008002070
:105A080007282ED807282BD8DFE800F004080D1245
:105A1800171B2025144B587F80097047124B587F5D
:105A2800C0F301107047104B587FC0F381007047D6
:105A38000D4B587F00F0030070470B4B987F80098F
:105A48007047094B987FC0F301107047064B987F49
:105A5800C0F381007047044B987F00F00300704743
:105A680070474FF6FF707047900800200C480D49AA
:105A78000D4A002302E0D458C4500433C4188C42A1
:105A8800F9D30A4A0A4C002301E013600432A24207
:105A9800FBD3FEF7DDFF00F00FF8FCF785FB70473E
:105AA80000000020CC040020E4640008D00400209A
:105AB800FC090020FEE7000070B50D4E0D4D761B69
:105AC800B61006D0002455F8043B01349847A64286
